:020000040800F2
:100000000050002069110008B10F0008B70F000868
:10001000BD0F0008C30F0008C90F00080000000052
:10002000000000000000000000000000CF0F0008EA
:10003000DB0F000800000000E70F0008F30F0008C6
:10004000B1110008B1110008B1110008B111000888
:10005000B1110008B1110008B1110008B111000878
:10006000B1110008B1110008B1110008B111000868
:10007000B1110008B1110008B11100080110000809
:10008000B1110008B1110008B1110008B111000848
:10009000B1110008B1110008B1110008B111000838
:1000A000B1110008B1110008B1110008B111000828
:1000B000B1110008B1110008B1110008B111000818
:1000C000B1110008B1110008B1110008B111000808
:1000D000B1110008B1110008B1110008B1110008F8
:1000E000B1110008B1110008B111000800000000B2
:1000F0000000000000000000000000000000000000
:0C01000000000000000000005FF808F1A3
:1001100010B5054C237833B9044B13B10448AFF341
:1001200000800123237010BD680000200000000043
:100130000862000808B5034B1BB103490348AFF33D
:10014000008008BD000000006C000020086200086C
:1001500081F0004102E000BF83F0004330B54FEA78
:1001600041044FEA430594EA050F08BF90EA020FE5
:100170001FBF54EA000C55EA020C7FEA645C7FEA78
:10018000655C00F0E2804FEA5454D4EB5555B8BF9B
:100190006D420CDD2C4480EA020281EA030382EA0C
:1001A000000083EA010180EA020281EA0303362D9E
:1001B00088BF30BD11F0004F4FEA01314FF4801C71
:1001C0004CEA113102D0404261EB410113F0004F83
:1001D0004FEA03334CEA133302D0524263EB43033A
:1001E00094EA050F00F0A780A4F10104D5F1200ED8
:1001F0000DDB02FA0EFC22FA05F2801841F1000133
:1002000003FA0EF2801843FA05F359410EE0A5F106
:1002100020050EF1200E012A03FA0EFC28BF4CF037
:10022000020C43FA05F3C01851EBE37101F00045ED
:1002300007D54FF0000EDCF1000C7EEB00006EEBFA
:100240000101B1F5801F1BD3B1F5001F0CD3490884
:100250005FEA30004FEA3C0C04F101044FEA4452DB
:1002600012F5800F80F09A80BCF1004F08BF5FEA62
:10027000500C50F1000041EB045141EA050130BD42
:100280005FEA4C0C404141EB0101013C28BFB1F554
:10029000801FE9D291F0000F04BF01460020B1FA9F
:1002A00081F308BF2033A3F10B03B3F120020CDA72
:1002B0000C3208DD02F1140CC2F10C0201FA0CF050
:1002C00021FA02F10CE002F11402D8BFC2F1200CB5
:1002D00001FA02F120FA0CFCDCBF41EA0C0190406B
:1002E000E41AA2BF01EB0451294330BD6FEA0404B4
:1002F0001F3C1CDA0C340EDC04F11404C4F120029F
:1003000020FA04F001FA02F340EA030021FA04F3B0
:1003100045EA030130BDC4F10C04C4F1200220FA07
:1003200002F001FA04F340EA0300294630BD21FA45
:1003300004F0294630BD94F0000F83F4801306BF0B
:1003400081F480110134013D4EE77FEA645C18BFFF
:100350007FEA655C29D094EA050F08BF90EA020F96
:1003600005D054EA000C04BF1946104630BD91EA8E
:10037000030F1EBF0021002030BD5FEA545C05D191
:100380004000494128BF41F0004130BD14F58004D0
:100390003CBF01F5801130BD01F0004545F0FE4144
:1003A00041F470014FF0000030BD7FEA645C1ABF79
:1003B000194610467FEA655C1CBF0B46024650EAB0
:1003C000013406BF52EA033591EA030F41F40021DC
:1003D00030BD00BF90F0000F04BF0021704730B562
:1003E0004FF4806404F132044FF000054FF0000137
:1003F00050E700BF90F0000F04BF0021704730B5F8
:100400004FF4806404F1320410F0004548BF4042CC
:100410004FF000013EE700BF42004FEAE2014FEA21
:1004200031014FEA02701FBF12F07F4393F07F4FFC
:1004300081F06051704732F07F4208BF704793F0FF
:100440007F4F04BF41F40021704730B54FF4607412
:1004500001F0004521F000411CE700BF50EA010215
:1004600008BF704730B54FF000050AE050EA0102BE
:1004700008BF704730B511F0004502D5404261EB2E
:1004800041014FF4806404F132045FEA915C3FF46F
:10049000D8AE4FF003025FEADC0C18BF03325FEA0C
:1004A000DC0C18BF033202EBDC02C2F1200300FABD
:1004B00003FC20FA02F001FA03FE40EA0E0021FAE2
:1004C00002F11444BDE600BF4FF0FF3C06E000BF60
:1004D0004FF0010C02E000BF4FF0010C4DF804CDCD
:1004E0004FEA410C7FEA6C5C4FEA430C18BF7FEA8D
:1004F0006C5C1BD001B050EA410C0CBF52EA430CBB
:1005000091EA030F02BF90EA020F0020704710F13A
:10051000000F91EA030F58BF994208BF90422CBFC9
:10052000D8176FEAE37040F0010070474FEA410CC2
:100530007FEA6C5C02D150EA013C07D14FEA430CE0
:100540007FEA6C5CD6D152EA033CD3D05DF8040B51
:10055000704700BF8446104662468C461946634683
:1005600000E000BF01B5FFF7B7FF002848BF10F15A
:10057000000F01BD4DF808EDFFF7F4FF0CBF01209F
:1005800000205DF808FB00BF4DF808EDFFF7EAFF1B
:1005900034BF012000205DF808FB00BF4DF808EDD6
:1005A000FFF7E0FF94BF012000205DF808FB00BFCB
:1005B0004DF808EDFFF7CEFF94BF012000205DF855
:1005C00008FB00BF4DF808EDFFF7C4FF34BF012062
:1005D00000205DF808FB00BF4A0011D212F500129E
:1005E00011D20DD56FF47873B3EB62520ED44FEA8B
:1005F000C12343F0004343EA505323FA02F070470B
:100600004FF00000704750EA013002D14FF0FF3048
:1006100070474FF0000070474FF0FF0C1CEAD052BB
:100620001EBF1CEAD15392EA0C0F93EA0C0F6FD055
:100630001A4480EA010C400218BF5FEA41211ED033
:100640004FF0006343EA501043EA5111A0FB01311F
:100650000CF00040B1F5000F3EBF490041EAD371F4
:100660005B0040EA010062F17F02FD2A1DD8B3F170
:10067000004F40EBC25008BF20F00100704790F0DF
:10068000000F0CF0004C08BF49024CEA502040EA31
:1006900051207F3AC2BFD2F1FF0340EAC2507047F7
:1006A00040F400004FF00003013A5DDC12F1190F35
:1006B000DCBF00F000407047C2F10002410021FAA7
:1006C00002F1C2F1200200FA02FC5FEA310040F1BF
:1006D000000053EA4C0308BF20EADC70704792F038
:1006E000000F00F0004C02BF400010F4000F013A70
:1006F000F9D040EA0C0093F0000F01F0004C02BF6B
:10070000490011F4000F013BF9D041EA0C018FE7D9
:100710000CEAD15392EA0C0F18BF93EA0C0F0AD0DF
:1007200030F0004C18BF31F0004CD8D180EA010005
:1007300000F00040704790F0000F17BF90F0004F9E
:10074000084691F0000F91F0004F14D092EA0C0F80
:1007500001D142020FD193EA0C0F03D14B0218BF13
:10076000084608D180EA010000F0004040F0FE4059
:1007700040F40000704740F0FE4040F440007047F5
:100780004FF0FF0C1CEAD0521EBF1CEAD15392EA74
:100790000C0F93EA0C0F69D0A2EB030280EA010C64
:1007A00049024FEA402037D04FF0805343EA1111FD
:1007B00043EA10130CF000408B4238BF5B0042F15B
:1007C0007D024FF4000C8B4224BF5B1A40EA0C0000
:1007D000B3EB510F24BFA3EB510340EA5C00B3EB32
:1007E000910F24BFA3EB910340EA9C00B3EBD10F20
:1007F00024BFA3EBD10340EADC001B0118BF5FEA72
:100800001C1CE0D1FD2A3FF650AF8B4240EBC2509A
:1008100008BF20F0010070470CF0004C4CEA50205B
:100820007F32C2BFD2F1FF0340EAC250704740F4AA
:1008300000004FF00003013A37E792F0000F00F09C
:10084000004C02BF400010F4000F013AF9D040EA1A
:100850000C0093F0000F01F0004C02BF490011F4AE
:10086000000F013BF9D041EA0C0195E70CEAD153A6
:1008700092EA0C0F08D142027FF47DAF93EA0C0F8D
:100880007FF470AF084676E793EA0C0F04D14B0271
:100890003FF44CAF08466EE730F0004C18BF31F023
:1008A000004CCAD130F000427FF45CAF31F000431D
:1008B0007FF43CAF5FE700BF4FF0FF3C06E000BFB6
:1008C0004FF0010C02E000BF4FF0010C4DF804CDD9
:1008D0004FEA40024FEA41037FEA226C18BF7FEAE9
:1008E000236C11D001B052EA530C18BF90EA010FEB
:1008F00058BFB2EB030088BFC81738BF6FEAE1707A
:1009000018BF40F0010070477FEA226C02D15FEA15
:10091000402C05D17FEA236CE4D15FEA412CE1D081
:100920005DF8040B704700BF844608466146FFE748
:100930000FB5FFF7C9FF002848BF10F1000F0FBD2A
:100940004DF808EDFFF7F4FF0CBF012000205DF823
:1009500008FB00BF4DF808EDFFF7EAFF34BF0120A8
:1009600000205DF808FB00BF4DF808EDFFF7E0FF41
:1009700094BF012000205DF808FB00BF4DF808ED92
:10098000FFF7D2FF94BF012000205DF808FB00BFF5
:100990004DF808EDFFF7C8FF34BF012000205DF8D7
:1009A00008FB00BF42000ED2B2F1FE4F0BD34FF056
:1009B0009E03B3EB126209D44FEA002343F00043D5
:1009C00023FA02F070474FF00000704712F1610FF8
:1009D00001D1420202D14FF0FF3070474FF00000CA
:1009E000704700BF80B483B000AF78604FF06043C1
:1009F000D3F8803E03F00103002B13D04FF0604387
:100A0000D3F8003E03F00103002B0BD000E000BF41
:100A10004FF060431B68002BF9D04FF060437A68B9
:100A2000D2B21A707B6818460C37BD4680BC70473E
:100A300080B586B000AFF860B9607A6000237B6152
:100A400009E0BB685A1CBA601B781846FFF7CAFF5A
:100A50007B6901337B617A697B689A42F1DB7B6851
:100A600018461837BD4680BD80B582B000AF7860AB
:100A700040F2F3120349044802F0EEFE00BF0837CB
:100A8000BD4680BD040200207801002080B59CB0E6
:100A900000AF00F009FD00F08BF800F045F900F020
:100AA00025F900F0CBF800F0F7F84FF4FA72374967
:100AB000374802F0D1FE3749012003F0C3FA364827
:100AC00003F01EFD0A21002003F048FE0E21012044
:100AD00003F044FE314803F047FD24237B6007F117
:100AE000080360220021184604F0A8FD00F062FB14
:100AF0002B49264804F0BEFDF8661AE0284900207C
:100B000004F0B8FDF866FB6E02331B78472B10D15A
:100B1000FB6E03331B78472B0BD1FB6E04331B7822
:100B2000412B06D13B1D0133F96E184604F080FEBF
:100B300002E0FB6E002BE1D13B1D1946194804F081
:100B400037FC194BDB683A1D642110469847034671
:100B500087F86B3001224FF40071144801F0AAF9B4
:100B6000642000F003FD00224FF400710F4801F0F3
:100B7000A1F9642000F0FAFC07F16803184603F0BD
:100B8000D3FF0346A7F86830B2E700BF0402002095
:100B9000780100202401002000004843E093040075
:100BA000206200082462000884000020000C01403C
:100BB00080B590B000AF07F1180328220021184635
:100BC00004F03CFD3B1D00221A605A609A60DA6016
:100BD0001A610123BB614FF48033FB6100233B6248
:100BE0000123BB6202237B634FF48033BB634FF46A
:100BF000E013FB6307F11803184602F0CDF9034632
:100C0000002B01D000F0E8F80F237B600223BB60CB
:100C10000023FB604FF480633B6100237B613B1D3D
:100C20000221184602F03AFC0346002B01D000F0E6
:100C3000D3F800BF4037BD4680BD000080B500AF8F
:100C4000124B134A1A60114B124A5A600F4B002282
:100C50009A600E4B0022DA600C4B4FF480421A610E
:100C60000A4B00225A61094B00229A61074B00226D
:100C7000DA61064B00221A62044801F033F9034698
:100C8000002B01D000F0A8F800BF80BD2401002097
:100C900000540040A086010080B500AF114B124AFD
:100CA0001A60104B4FF416525A600E4B00229A6095
:100CB0000C4B0022DA600B4B00221A61094B0C220C
:100CC0005A61084B00229A61064B0022DA610548FE
:100CD00002F072FD0346002B01D000F07DF800BF4A
:100CE00080BD00BF780100200038014080B582B08F
:100CF00000AF0C4B5B690B4A43F001035361094B96
:100D00005B6903F001037B607B68002200210F20F8
:100D100000F027FD0F2000F040FD00BF0837BD4662
:100D200080BD00BF0010024080B588B000AF07F161
:100D3000100300221A605A609A60DA60244B9B69A3
:100D4000234A43F010039361214B9B6903F0100386
:100D5000FB60FB681E4B9B691D4A43F020039361B7
:100D60001B4B9B6903F02003BB60BB68184B9B695E
:100D7000174A43F004039361154B9B6903F0040386
:100D80007B607B68124B9B69114A43F008039361B7
:100D90000F4B9B6903F008033B603B6800224FF454
:100DA00000710C4801F086F84FF400733B61012399
:100DB0007B610023BB610223FB6107F1100319462D
:100DC000044800F0F3FE00BF2037BD4680BD00BFE1
:100DD00000100240000C014080B400AF72B600BFAA
:100DE000FEE7000080B485B000AF154B9B69144A44
:100DF00043F001039361124B9B6903F00103BB6055
:100E0000BB680F4BDB690E4A43F08053D3610C4B38
:100E1000DB6903F080537B607B680A4B5B68FB6097
:100E2000FB6823F0E063FB60FB6843F00073FB604A
:100E3000044AFB68536000BF1437BD4680BC70474E
:100E4000001002400000014080B588B000AF78601B
:100E500007F1100300221A605A609A60DA607B681A
:100E60001B68154A934223D1144B9B69134A43F0E4
:100E700008039361114B9B6903F00803FB60FB6857
:100E8000C0233B6112237B610323FB6107F1100345
:100E900019460B4800F08AFE084BDB69074A43F409
:100EA0000013D361054BDB6903F40013BB60BB681F
:100EB00000BF2037BD4680BD0054004000100240F6
:100EC000000C014080B588B000AF786007F11003D6
:100ED00000221A605A609A60DA607B681B682F4AA9
:100EE000934257D12E4B9B692D4A43F48043936123
:100EF0002B4B9B6903F48043FB60FB68284B9B6989
:100F0000274A43F004039361254B9B6903F00403D4
:100F1000BB60BB684FF400733B6102237B6103231A
:100F2000FB6107F1100319461E4800F03FFE4FF425
:100F300080633B6100237B610023BB6107F11003E9
:100F40001946184800F032FE174B184A1A60164B23
:100F500000225A60144B00229A60134B8022DA6000
:100F6000114B00221A61104B00225A610E4B0022D5
:100F70009A610D4B0022DA610B4800F029FC034610
:100F8000002B01D0FFF728FF7B68074ADA63064A87
:100F90007B68536200BF2037BD4680BD00380140EA
:100FA0000010024000080140C0010020580002402B
:100FB00080B400AFFEE780B400AFFEE780B400AFBE
:100FC000FEE780B400AFFEE780B400AFFEE780B478
:100FD00000AF00BFBD4680BC704780B400AF00BF0B
:100FE000BD4680BC704780B400AF00BFBD4680BC2A
:100FF000704780B500AF00F09DFA00BF80BD0000D3
:1010000080B500AF024800F09DFC00BF80BD00BF6E
:10101000C001002080B400AF01231846BD4680BC4B
:10102000704780B582B000AF7860396004F0D4FBBF
:10103000034616221A604FF0FF3318460837BD46A4
:1010400080BD80B582B000AF78604FF0FF31786826
:10105000FFF7E7FFFEE780B586B000AFF860B96044
:101060007A6000237B610AE0AFF300800146BB6831
:101070005A1CBA60CAB21A707B6901337B617A6903
:101080007B689A42F0DB7B6818461837BD4680BD06
:1010900080B483B000AF78604FF0FF3318460C3750
:1010A000BD4680BC704780B483B000AF78603960C3
:1010B0003B684FF400525A60002318460C37BD4677
:1010C00080BC704780B483B000AF786001231846BD
:1010D0000C37BD4680BC704780B485B000AFF86067
:1010E000B9607A60002318461437BD4680BC70474B
:1010F00080B586B000AF7860144A154BD31A7B6177
:101100007B693B61134B1B68002B02D1114B124AC8
:101110001A60104B1A687B6813443A699A4207D2E6
:1011200004F05AFB03460C221A604FF0FF3309E02B
:10113000084B1B68FB60074B1A687B681344054A21
:101140001360FB6818461837BD4680BD005000206C
:1011500000040000F8030020B805002080B400AFB0
:1011600000BFBD4680BC7047FFF7F8FF0B480C4935
:101170000C4A002302E0D458C4500433C4188C42F3
:10118000F9D3094A094C002301E013600432A2425A
:10119000FBD304F027FBFFF779FC70470000002029
:1011A000680000208864000868000020B405002062
:1011B000FEE7000080B400AF0D4B0E4A9A600C4B66
:1011C0000D4ADA600A4B00221A70094B00225A704D
:1011D000074B00229A70064B0022DA70044B002263
:1011E0001A71034B00225A7100BFBD4680BC704784
:1011F00084000020B5130008FD11000880B588B0F8
:1012000000AF78600B46FB707968384804F010FB3B
:101210000023FB770023BB7700237B7729E0FB7F4C
:10122000334A13441B7C2C2B14D17B7F20333B444B
:10123000002203F8142C7B7F0133D9B2BA7F07F167
:101240000C03184600F060F800237B77BB7F013366
:10125000BB770BE0FA7F7B7F25490A44127C203361
:101260003B4403F8142C7B7F01337B77FB7F0133F6
:10127000FB77FA7FFB789A42D1D31E4B1B78002B69
:101280000CBF01230023DAB21B4B1B78002B0CBFD1
:1012900001230023DBB21343DBB21A46154B1B7844
:1012A000002B0CBF01230023DBB2134301221146A4
:1012B000124A452A01D100221146C9B20122104624
:1012C0000F4A4E2A01D100221046C2B20A43D2B2BE
:1012D0001343002B04D00B4804F0D0F8002300E0A7
:1012E000012318462037BD4680BD00BF9400002072
:1012F00084000020150100200901002022010020A7
:10130000210100203062000880B582B000AF786013
:101310000B46FB701346BB70BB78052B38D801A277
:1013200052F823F03D1300084B130008591300082E
:10133000671300087513000883130008FB781A462A
:101340007968164804F082F923E0FB781A46796838
:10135000134804F07BF91CE0FB781A4679681148C1
:1013600004F074F915E0FB781A4679680E4804F029
:101370006DF90EE0FB781A4679680C4804F066F9BE
:1013800007E0FB781A467968094804F05FF900E045
:1013900000BF00BF0837BD4680BD00BFF800002079
:1013A000FF0000200901002021010020150100207C
:1013B0002201002080B584B000AF0C2003F00CFEA9
:1013C0000346FB600C223349F86804F03FF93249C8
:1013D000F86804F04FF9B860B86803F0F9FD786078
:1013E0007B682E4A82FB03125211DB17D31A184670
:1013F000FFF700F802460B4610461946FFF7ECF8D7
:101400000346FB70264B93F87B30303BDBB21A4629
:10141000920013445B00DAB2214B93F87C30134402
:10142000DBB2303BDAB21E4BDA701D4B93F87D30E5
:10143000303BDBB21A46920013445B00DAB2184B21
:1014400093F87E301344DBB2303BDAB2144B1A719E
:10145000134B93F87F30303BDBB21A4692001344B3
:101460005B00DAB20E4B93F880301344DBB2303BB2
:10147000DAB20B4B5A710A4BDB781946084B1B79D1
:101480001A46074B5B79074803F092FF00BF1037FD
:10149000BD4680BD1501002064620008F119760583
:1014A000840000206862000880B500AF084B1B680C
:1014B000074A43F010031360032000F047F90F20A0
:1014C00000F008F8FFF78EFC0023184680BD00BF2F
:1014D0000020024080B582B000AF7860124B1A68DD
:1014E000124B1B7819464FF47A73B3FBF1F3B2FB3E
:1014F000F3F3184600F05FF90346002B01D00123F7
:101500000EE07B680F2B0AD8002279684FF0FF307D
:1015100000F027F9064A7B681360002300E00123EE
:1015200018460837BD4680BD000000200800002096
:101530000400002080B400AF054B1B781A46054B11
:101540001B681344034A136000BFBD4680BC70474C
:1015500008000020FC03002080B400AF024B1B6891
:101560001846BD4680BC7047FC03002080B584B09F
:1015700000AF7860FFF7F0FFB8607B68FB60FB6846
:10158000B3F1FF3F05D00A4B1B781A46FB681344A2
:10159000FB6000BFFFF7E0FF0246BB68D31AFA68A2
:1015A0009A42F7D800BF00BF1037BD4680BD00BFCC
:1015B0000800002080B485B000AF78607B6803F03D
:1015C0000703FB600C4BDB68BB60BA684FF6FF0398
:1015D0001340BB60FB681A02BB68134343F0BF6350
:1015E00043F40033BB60044ABB68D36000BF1437C8
:1015F000BD4680BC704700BF00ED00E080B400AF86
:10160000044BDB681B0A03F007031846BD4680BC89
:10161000704700BF00ED00E080B483B000AF034628
:10162000FB7197F90730002B0BDBFB7903F01F02EE
:10163000064997F907305B09012000FA02F241F8E8
:10164000232000BF0C37BD4680BC704700E100E09E
:1016500080B483B000AF03463960FB7197F907305F
:10166000002B0ADB3B68DAB20C4997F9073012010C
:10167000D2B20B4483F800230AE03B68DAB208498F
:10168000FB7903F00F03043B1201D2B20B441A762C
:1016900000BF0C37BD4680BC704700BF00E100E0D2
:1016A00000ED00E080B489B000AFF860B9607A6006
:1016B000FB6803F00703FB61FB69C3F10703042B1D
:1016C00028BF0423BB61FB690433062B02D9FB69E5
:1016D000033B00E000237B614FF0FF32BB6902FA5D
:1016E00003F3DA43BB681A407B699A404FF0FF313D
:1016F0007B6901FA03F3D9437B680B401343184617
:101700002437BD4680BC704780B582B000AF78609A
:101710007B68013BB3F1807F01D301230FE00A4ACC
:101720007B68013B53600F214FF0FF30FFF790FFC4
:10173000054B00229A60044B07221A6000231846CA
:101740000837BD4680BD00BF10E000E080B582B024
:1017500000AF78607868FFF72DFF00BF0837BD46FF
:1017600080BD80B586B000AF0346B9607A60FB7378
:1017700000237B61FFF742FF78617A68B968786976
:10178000FFF790FF024697F90F3011461846FFF712
:101790005FFF00BF1837BD4680BD80B582B000AF87
:1017A0000346FB7197F907301846FFF735FF00BF76
:1017B0000837BD4680BD80B582B000AF78607868DC
:1017C000FFF7A2FF034618460837BD4680BD00005C
:1017D00080B485B000AF78600023FB607B68002B8D
:1017E00001D1012343E07B681B681A46224B134456
:1017F000224AA2FB03231B099A007B681A647B68B8
:101800001F4ADA637B68022283F821207B681B6809
:101810001B68FB60FB6823F47F5323F03003FB60FD
:101820007B685A687B689B681A437B68DB681A434D
:101830007B681B691A437B685B691A437B689B69F9
:101840001A437B68DB691343FA681343FB607B68C8
:101850001B68FA681A607B6800229A637B68012221
:1018600083F821207B68002283F82020002318467B
:101870001437BD4680BC7047F8FFFDBFCDCCCCCC43
:101880000000024080B586B000AFF860B9607A60B1
:101890003B600023FB75FB6893F82030012B01D1DE
:1018A00002234BE0FB68012283F82020FB6893F8B9
:1018B0002130DBB2012B3AD1FB68022283F82120D0
:1018C000FB6800229A63FB681B681A68FB681B6848
:1018D00022F001021A603B687A68B968F86800F083
:1018E00037F9FB68DB6A002B08D0FB681B681A68B5
:1018F000FB681B6842F00E021A600FE0FB681B6871
:101900001A68FB681B6822F004021A60FB681B68F7
:101910001A68FB681B6842F00A021A60FB681B68C1
:101920001A68FB681B6842F001021A6005E0FB6858
:10193000002283F820200223FB75FB7D1846183710
:10194000BD4680BD80B584B000AF78607B68DB6B3E
:101950001B68FB607B681B681B68BB607B681B6C3B
:1019600004229A40FB681340002B4FD0BB6803F061
:101970000403002B4AD07B681B681B6803F020031C
:10198000002B07D17B681B681A687B681B6822F0F4
:1019900004021A607B681B68664A934229D07B6800
:1019A0001B68654A934222D07B681B68634A934256
:1019B0001AD07B681B68624A934212D07B681B680E
:1019C000604A93420AD07B681B685F4A934202D107
:1019D0004FF480030EE04FF080630BE04FF4802360
:1019E00008E04FF4804305E04FF4806302E04023B9
:1019F00000E00423554A53607B68DB6A002B00F04B
:101A000094807B68DB6A786898478EE07B681B6C03
:101A100002229A40FB681340002B56D0BB6803F0AB
:101A20000203002B51D07B681B681B6803F0200366
:101A3000002B0BD17B681B681A687B681B6822F03F
:101A40000A021A607B68012283F821207B681B68E8
:101A5000384A934229D07B681B68374A934222D088
:101A60007B681B68354A93421AD07B681B68344AEE
:101A7000934212D07B681B68324A93420AD07B683B
:101A80001B68314A934202D14FF400130EE04FF02D
:101A900000730BE04FF4003308E04FF4005305E00F
:101AA0004FF4007302E0202300E00223274A536032
:101AB0007B68002283F820207B689B6A002B34D04F
:101AC0007B689B6A786898472FE07B681B6C0822CC
:101AD0009A40FB681340002B28D0BB6803F0080332
:101AE000002B23D07B681B681A687B681B6822F078
:101AF0000E021A607B681A6C7B68DB6B012101FAAD
:101B000002F25A607B6801229A637B68012283F8A3
:101B100021207B68002283F820207B681B6B002B30
:101B200004D07B681B6B7868984700BF00BF1037F4
:101B3000BD4680BD080002401C000240300002404B
:101B400044000240580002406C0002400000024085
:101B500080B485B000AFF860B9607A603B60FB6824
:101B60001A6CFB68DB6B012101FA02F25A60FB6818
:101B70001B683A685A60FB685B68102B08D1FB68E9
:101B80001B687A689A60FB681B68BA68DA6007E0CD
:101B9000FB681B68BA689A60FB681B687A68DA6041
:101BA00000BF1437BD4680BC7047000080B48BB0C6
:101BB00000AF7860396000237B6200233B6269E1FB
:101BC00001227B6A02FA03F3FB613B681B68FA6936
:101BD0001340BB61BA69FB699A4240F058813B6887
:101BE0005B689A4A93425ED0984A934275D8984A65
:101BF000934258D0964A93426FD8964A934252D015
:101C0000944A934269D8944A93424CD0924A934260
:101C100063D8924A934246D0904A93425DD8122BA1
:101C20002AD8122B59D801A252F823F0A71C000879
:101C3000811C0008931C0008D51C0008DB1C000850
:101C4000DB1C0008DB1C0008DB1C0008DB1C000898
:101C5000DB1C0008DB1C0008DB1C0008DB1C000888
:101C6000DB1C0008DB1C0008DB1C0008DB1C000878
:101C7000891C00089D1C0008794A934213D02CE06F
:101C80003B68DB683B6229E03B68DB6804333B620E
:101C900024E03B68DB6808333B621FE03B68DB689D
:101CA0000C333B621AE03B689B68002B02D1042393
:101CB0003B6213E03B689B68012B05D108233B6224
:101CC0007B68FA691A6109E008233B627B68FA695C
:101CD0005A6103E000233B6200E000BFBB69FF2BB9
:101CE00001D87B6801E07B6804337B61BB69FF2B13
:101CF00002D87B6A9B0002E07B6A083B9B003B6149
:101D00007B691A680F213B6901FA03F3DB431A4030
:101D1000396A3B6901FA03F31A437B691A603B682D
:101D20005B6803F08053002B00F0B1804D4B9B6942
:101D30004C4A43F0010393614A4B9B6903F0010352
:101D4000BB60BB68484A7B6A9B08023352F8233069
:101D5000FB607B6A03F003039B000F2202FA03F38C
:101D6000DB43FA681340FB607B68404A934213D020
:101D70007B683F4A93420DD07B683E4A934207D02E
:101D80007B683D4A934201D1032306E0042304E02B
:101D9000022302E0012300E000237A6A02F003023A
:101DA00092009340FA681343FB602F497B6A9B08BB
:101DB0000233FA6841F823203B685B6803F4801320
:101DC000002B06D02D4B9A682C49BB6913438B60BE
:101DD00006E02A4B9A68BB69DB43284913408B60B5
:101DE0003B685B6803F40013002B06D0234BDA68D2
:101DF0002249BB691343CB6006E0204BDA68BB691C
:101E0000DB431E491340CB603B685B6803F400333F
:101E1000002B06D0194B5A681849BB6913434B6015
:101E200006E0164B5A68BB69DB43144913404B600C
:101E30003B685B6803F48033002B21D00F4B1A689A
:101E40000E49BB6913430B6021E000BF0000321054
:101E500000003110000022100000211000001210BC
:101E60000000111000100240000001400008014075
:101E7000000C01400010014000140140000401402A
:101E80000B4B1A68BB69DB43094913400B607B6A43
:101E900001337B623B681A687B6A22FA03F3002BEA
:101EA0007FF48EAE00BF00BF2C37BD4680BC7047AC
:101EB0000004014080B483B000AF78600B467B80A3
:101EC00013467B707B78002B03D07A887B681A617D
:101ED00003E07B881A047B681A6100BF0C37BD469B
:101EE00080BC704780B584B000AF78607B68002B01
:101EF00001D101232BE17B6893F83D30DBB2002B4D
:101F000006D17B68002283F83C207868FEF79CFFAE
:101F10007B68242283F83D207B681B681A687B68F5
:101F20001B6822F001021A607B681B681A687B68D4
:101F30001B6842F400421A607B681B681A687B6861
:101F40001B6822F400421A6001F0F0FBF8607B6825
:101F50005B68814A934207D8FB68804A934294BFEA
:101F600001230023DBB206E0FB687D4A934294BF65
:101F700001230023DBB2002B01D00123E7E0FB6843
:101F8000784AA2FB03239B0CBB607B681B685B68E1
:101F900023F03F017B681B68BA680A435A607B687C
:101FA0001B681B6A23F03F017B685B686A4A9342A7
:101FB00002D8BB68013309E0BB684FF4967202FB9C
:101FC00003F3694AA2FB03239B0901337A68126871
:101FD0000B4313627B681B68DB6923F44F4222F0DA
:101FE000FF027B685B685C498B4219D8FB68591E0D
:101FF0007B685B685B00B1FBF3F3591C40F6FC7334
:102000000B40002B0AD0FB68591E7B685B685B00A5
:10201000B1FBF3F30133C3F30B0351E004234FE0AF
:102020007B689B68002B11D1FB68581E7B68596840
:102030000B465B000B44B0FBF3F30133C3F30B031C
:10204000002B0CBF01230023DBB212E0FB68581EFB
:102050007B6859680B469B000B4499000B44B0FB0E
:10206000F3F30133C3F30B03002B0CBF0123002355
:10207000DBB2002B01D0012322E07B689B68002BA0
:102080000ED1FB68581E7B6859680B465B000B44F9
:10209000B0FBF3F30133C3F30B0343F400430FE04E
:1020A000FB68581E7B6859680B469B000B449900DF
:1020B0000B44B0FBF3F30133C3F30B0343F440438E
:1020C000796809681343CB617B681B681B6823F040
:1020D000C0017B68DA697B681B6A1A437B681B68EE
:1020E0000A431A607B681B689B6823F4034323F050
:1020F000FF037A6811697A68D26811437A681268B6
:102100000B4393607B681B68DB6823F0FF017B68EF
:102110005A697B689B691A437B681B680A43DA60CB
:102120007B681B681A687B681B6842F001021A60B2
:102130007B6800221A647B68202283F83D207B683C
:1021400000221A637B68002283F83E200023184691
:102150001037BD4680BD00BFA08601007F841E00F1
:10216000FF083D0083DE1B43D34D621080B588B06D
:1021700002AFF860084611461A4603467B810B46BB
:102180003B811346FB80FFF7E7F97861FB6893F822
:102190003D30DBB2202B40F0D9807B6900931923BE
:1021A00001226D49F86800F0C1FC0346002B01D004
:1021B0000223CCE0FB6893F83C30012B01D10223D1
:1021C000C5E0FB68012283F83C20FB681B681B68A4
:1021D00003F00103012B07D0FB681B681A68FB683A
:1021E0001B6842F001021A60FB681B681A68FB68F2
:1021F0001B6822F400621A60FB68212283F83D20EC
:10220000FB68402283F83E20FB6800221A64FB68CA
:102210003A6A5A62FB68BA8C5A85FB685B8D9AB23F
:10222000FB681A85FB684D4ADA62F8883A89798931
:102230007B690193BB6A00930346F86800F0F8FAE3
:102240000346002B52D0012381E07A69B96AF8680D
:1022500000F086FD0346002B0DD0FB681B6C042BA1
:1022600007D1FB681B681A68FB681B6842F40072A0
:102270001A6001236BE0FB685B6A1A78FB681B68D5
:102280001A61FB685B6A5A1CFB685A62FB681B8D0B
:10229000013B9AB2FB681A85FB685B8D9BB2013BE0
:1022A0009AB2FB685A85FB681B685B6903F00403FC
:1022B000042B1BD1FB681B8D002B17D0FB685B6ABE
:1022C0001A78FB681B681A61FB685B6A5A1CFB681A
:1022D0005A62FB681B8D013B9AB2FB681A85FB684A
:1022E0005B8D9BB2013B9AB2FB685A85FB681B8DE4
:1022F000002BAAD17A69B96AF86800F079FD034623
:10230000002B0DD0FB681B6C042B07D1FB681B68EE
:102310001A68FB681B6842F400721A60012316E019
:10232000FB681B681A68FB681B6842F400721A603D
:10233000FB68202283F83D20FB68002283F83E20C2
:10234000FB68002283F83C20002300E002231846AB
:102350001837BD4680BD00BF020010000000FFFF1F
:1023600080B58CB002AFF860084611461A460346A5
:102370007B810B463B811346FB8000233B62FFF7CA
:10238000EBF87862FB6893F83D30DBB2202B40F02D
:1023900044827B6A0093192301228249F86800F085
:1023A000C5FB0346002B01D0022337E2FB6893F8FC
:1023B0003C30012B01D1022330E2FB68012283F87B
:1023C0003C20FB681B681B6803F00103012B07D04E
:1023D000FB681B681A68FB681B6842F001021A6000
:1023E000FB681B681A68FB681B6822F400621A60AD
:1023F000FB68222283F83D20FB68402283F83E20C0
:10240000FB6800221A64FB683A6B5A62FB68BA8E5A
:102410005A85FB685B8D9AB2FB681A85FB68624A35
:10242000DA62F8883A8979897B6A0193BB6B0093F9
:102430000346F86800F092FA0346002B01D001230E
:10244000ECE1FB681B8D002B13D10023FB61FB68C3
:102450001B685B69FB61FB681B689B69FB61FB692F
:10246000FB681B681A68FB681B6842F400721A60FC
:10247000C0E1FB681B8D012B1ED1FB681B681A682D
:10248000FB681B6822F480621A6072B600BF0023EA
:10249000BB61FB681B685B69BB61FB681B689B6970
:1024A000BB61BB69FB681B681A68FB681B6842F468
:1024B00000721A6062B635E0FB681B8D022B1ED1DC
:1024C000FB681B681A68FB681B6842F400621A60AC
:1024D00072B600BF00237B61FB681B685B697B6190
:1024E000FB681B689B697B617B69FB681B681A68DA
:1024F000FB681B6822F480621A6062B612E0FB6817
:102500001B681A68FB681B6842F480621A6000232B
:102510003B61FB681B685B693B61FB681B689B69EF
:102520003B613B6966E1FB681B8D032B00F21F8159
:10253000FB681B8D012B23D17A6AB96BF86800F018
:102540009FFC0346002B01D0012367E1FB681B6859
:102550001A69FB685B6AD2B21A70FB685B6A5A1C24
:10256000FB685A62FB681B8D013B9AB2FB681A85B7
:10257000FB685B8D9BB2013B9AB2FB685A8539E1DF
:10258000FB681B8D022B52D17B6A0093BB6B002230
:102590000649F86800F0CAFA0346002B08D0012368
:1025A0003CE100BF020010000000FFFF040001003A
:1025B00072B600BFFB681B681A68FB681B6842F4B0
:1025C00000721A60FB681B681A69FB685B6AD2B20A
:1025D0001A70FB685B6A5A1CFB685A62FB681B8DA9
:1025E000013B9AB2FB681A85FB685B8D9BB2013B8D
:1025F0009AB2FB685A8562B600BFFB681B681A690D
:10260000FB685B6AD2B21A70FB685B6A5A1CFB6893
:102610005A62FB681B8D013B9AB2FB681A85FB6806
:102620005B8D9BB2013B9AB2FB685A85E2E07B6A04
:102630000093BB6B00227B49F86800F077FA0346F1
:10264000002B01D00123E9E0FB681B681A68FB68D6
:102650001B6822F480621A6072B600BFFB681B68B8
:102660001A69FB685B6AD2B21A70FB685B6A5A1C13
:10267000FB685A62FB681B8D013B9AB2FB681A85A6
:10268000FB685B8D9BB2013B9AB2FB685A85664B37
:102690001B68DB08654AA2FB03231A0A13469B004A
:1026A0001344DA00D31A3B623B6A013B3B623B6A4C
:1026B000002B18D1FB6800221A63FB68202283F8E4
:1026C0003D20FB68002283F83E20FB681B6C43F032
:1026D0002002FB681A6462B600BFFB68002283F820
:1026E0003C2001239AE0FB681B685B6903F004034C
:1026F000042BD9D1FB681B681A68FB681B6842F47D
:1027000000721A60FB681B681A69FB685B6AD2B2C8
:102710001A70FB685B6A5A1CFB685A62FB681B8D67
:10272000013B9AB2FB681A85FB685B8D9BB2013B4B
:102730009AB2FB685A8562B600BFFB681B681A69CB
:10274000FB685B6AD2B21A70FB685B6A5A1CFB6852
:102750005A62FB681B8D013B9AB2FB681A85FB68C5
:102760005B8D9BB2013B9AB2FB685A8542E07A6A64
:10277000B96BF86800F084FB0346002B01D00123FD
:102780004CE0FB681B681A69FB685B6AD2B21A707E
:10279000FB685B6A5A1CFB685A62FB681B8D013B35
:1027A0009AB2FB681A85FB685B8D9BB2013B9AB2BB
:1027B000FB685A85FB681B685B6903F00403042B04
:1027C00018D1FB681B681A69FB685B6AD2B21A7081
:1027D000FB685B6A5A1CFB685A62FB681B8D013BF5
:1027E0009AB2FB681A85FB685B8D9BB2013B9AB27B
:1027F000FB685A85FB681B8D002B7FF494AEFB6849
:10280000202283F83D20FB68002283F83E20FB68ED
:10281000002283F83C20002300E0022318462837DA
:10282000BD4680BD040001000000002089B5F814F9
:1028300080B588B002AFF860084611461A460346D4
:102840007B810B463B811346FB80FB681B681A6843
:10285000FB681B6842F480721A607B6A00933B6AD3
:1028600000224FF00111F86800F060F90346002BD8
:102870000DD0FB681B681B6803F48073B3F5807F81
:1028800003D1FB684FF400721A6403235FE07B8975
:10289000DBB21A46FB681B6802F0FE021A617B6A13
:1028A0003A6A2D49F86800F0BBF90346002B01D0C5
:1028B00001234CE000237B61FB681B685B697B6143
:1028C000FB681B689B697B617B697A6A396AF86877
:1028D00000F046FA0346002B0DD0FB681B6C042B5E
:1028E00007D1FB681B681A68FB681B6842F400721A
:1028F0001A6001232BE0FB88012B05D13B89DAB25A
:10290000FB681B681A6121E03B891B0A9BB2DAB2A3
:10291000FB681B681A617A6A396AF86800F020FA65
:102920000346002B0DD0FB681B6C042B07D1FB6802
:102930001B681A68FB681B6842F400721A60012366
:1029400005E03B89DAB2FB681B681A610023184670
:102950001837BD4680BD00BF0200010080B588B0B9
:1029600002AFF860084611461A4603467B810B46C3
:102970003B811346FB80FB681B681A68FB681B6879
:1029800042F480621A60FB681B681A68FB681B6867
:1029900042F480721A607B6A00933B6A00224FF017
:1029A0000111F86800F0C2F80346002B0DD0FB6857
:1029B0001B681B6803F48073B3F5807F03D1FB6849
:1029C0004FF400721A640323AAE07B89DBB21A4633
:1029D000FB681B6802F0FE021A617B6A3A6A524980
:1029E000F86800F01DF90346002B01D0012397E0A1
:1029F00000237B61FB681B685B697B61FB681B686C
:102A00009B697B617B697A6A396AF86800F0A8F98A
:102A10000346002B0DD0FB681B6C042B07D1FB6811
:102A20001B681A68FB681B6842F400721A60012375
:102A300076E0FB88012B05D13B89DAB2FB681B6885
:102A40001A6121E03B891B0A9BB2DAB2FB681B6862
:102A50001A617A6A396AF86800F082F90346002B35
:102A60000DD0FB681B6C042B07D1FB681B681A6830
:102A7000FB681B6842F400721A60012350E03B8936
:102A8000DAB2FB681B681A617A6A396AF86800F082
:102A900067F90346002B0DD0FB681B6C042B07D194
:102AA000FB681B681A68FB681B6842F400721A60B6
:102AB000012335E0FB681B681A68FB681B6842F459
:102AC00080721A607B6A00933B6A00224FF001110A
:102AD000F86800F02BF80346002B0DD0FB681B684C
:102AE0001B6803F48073B3F5807F03D1FB684FF458
:102AF00000721A64032313E07B89DBB243F0010305
:102B0000DAB2FB681B681A617B6A3A6A0649F868A0
:102B100000F086F80346002B01D0012300E00023DB
:102B200018461837BD4680BD0200010080B584B04C
:102B300000AFF860B9603B601346FB7148E03B684A
:102B4000B3F1FF3F44D0FEF707FD0246BB69D31A3D
:102B50003A689A4202D33B68002B39D1BB681B0C00
:102B6000DBB2012B0DD1FB681B685B69DA43BB68E4
:102B700013409BB2002B0CBF01230023DBB21A468B
:102B80000CE0FB681B689B69DA43BB6813409BB28F
:102B9000002B0CBF01230023DBB21A46FB799A42BB
:102BA00016D1FB6800221A63FB68202283F83D20BF
:102BB000FB68002283F83E20FB681B6C43F0200278
:102BC000FB681A64FB68002283F83C20012323E0A1
:102BD000BB681B0CDBB2012B0DD1FB681B685B696A
:102BE000DA43BB6813409BB2002B0CBF01230023C8
:102BF000DBB21A460CE0FB681B689B69DA43BB68D2
:102C000013409BB2002B0CBF01230023DBB21A46FA
:102C1000FB799A4293D0002318461037BD4680BDF9
:102C200080B584B000AFF860B9607A603B6071E055
:102C3000FB681B685B6903F48063B3F5806F23D185
:102C4000FB681B681A68FB681B6842F400721A6014
:102C5000FB681B686FF480625A61FB6800221A638C
:102C6000FB68202283F83D20FB68002283F83E2089
:102C7000FB681B6C43F00402FB681A64FB680022CB
:102C800083F83C20012367E07B68B3F1FF3F41D02C
:102C9000FEF762FC02463B68D31A7A689A4202D376
:102CA0007B68002B36D1BB681B0CDBB2012B0CD12F
:102CB000FB681B685B69DA43BB6813409BB2002B5F
:102CC00014BF01230023DBB20BE0FB681B689B6988
:102CD000DA43BB6813409BB2002B14BF01230023CF
:102CE000DBB2002B16D0FB6800221A63FB6820229F
:102CF00083F83D20FB68002283F83E20FB681B6CB4
:102D000043F02002FB681A64FB68002283F83C2031
:102D1000012321E0BB681B0CDBB2012B0CD1FB684B
:102D20001B685B69DA43BB6813409BB2002B14BF7E
:102D300001230023DBB20BE0FB681B689B69DA43CD
:102D4000BB6813409BB2002B14BF01230023DBB2EE
:102D5000002B7FF46DAF002318461037BD4680BDB1
:102D600080B584B000AFF860B9607A6034E0F8688C
:102D700000F0E3F80346002B01D0012334E0BB68E8
:102D8000B3F1FF3F28D0FEF7E7FB02467B68D31A7A
:102D9000BA689A4202D3BB68002B1DD1FB681B683E
:102DA0005B6903F08003802B16D0FB6800221A6356
:102DB000FB68202283F83D20FB68002283F83E2038
:102DC000FB681B6C43F02002FB681A64FB6800225E
:102DD00083F83C20012307E0FB681B685B6903F074
:102DE0008003802BC3D1002318461037BD4680BD19
:102DF00080B584B000AFF860B9607A6034E0F868FC
:102E000000F09BF80346002B01D0012334E0BB689F
:102E1000B3F1FF3F28D0FEF79FFB02467B68D31A31
:102E2000BA689A4202D3BB68002B1DD1FB681B68AD
:102E30005B6903F00403042B16D0FB6800221A63BD
:102E4000FB68202283F83D20FB68002283F83E20A7
:102E5000FB681B6C43F02002FB681A64FB680022CD
:102E600083F83C20012307E0FB681B685B6903F0E3
:102E70000403042BC3D1002318461037BD4680BD80
:102E800080B584B000AFF860B9607A6049E0FB6853
:102E90001B685B6903F01003102B19D1FB681B68DA
:102EA0006FF010025A61FB6800221A63FB6820224F
:102EB00083F83D20FB68002283F83E20FB681A6CF3
:102EC000FB681A64FB68002283F83C20012330E091
:102ED000FEF742FB02467B68D31ABA689A4202D3D5
:102EE000BB68002B1DD1FB681B685B6903F04003C6
:102EF000402B16D0FB6800221A63FB68202283F85F
:102F00003D20FB68002283F83E20FB681B6C43F0E9
:102F10002002FB681A64FB68002283F83C2001232E
:102F200007E0FB681B685B6903F04003402BAED1F0
:102F3000002318461037BD4680BD80B483B000AF73
:102F400078607B681B685B6903F48063B3F5806F0E
:102F50001BD17B681B686FF480625A617B6800221A
:102F60001A637B68202283F83D207B68002283F867
:102F70003E207B681B6C43F004027B681A647B680C
:102F8000002283F83C20012300E0002318460C3780
:102F9000BD4680BC7047000080B586B000AF786049
:102FA0007B68002B01D1012372E27B681B6803F070
:102FB0000103002B00F08780924B5B6803F00C0349
:102FC000042B0CD08F4B5B6803F00C03082B12D141
:102FD0008C4B5B6803F48033B3F5803F0BD1894B96
:102FE0001B6803F40033002B6CD07B685B68002BFC
:102FF00068D101234CE27B685B68B3F5803F06D162
:10300000804B1B687F4A43F4803313602EE07B685B
:103010005B68002B0CD17B4B1B687A4A23F480330E
:103020001360784B1B68774A23F4802313601DE0FC
:103030007B685B68B3F5A02F0CD1724B1B68714A9B
:1030400043F4802313606F4B1B686E4A43F4803354
:1030500013600BE06B4B1B686A4A23F480331360E8
:10306000684B1B68674A23F4802313607B685B68A6
:10307000002B13D0FEF770FA386108E0FEF76CFA07
:1030800002463B69D31A642B01D9032300E25D4B4E
:103090001B6803F40033002BF0D014E0FEF75CFA59
:1030A000386108E0FEF758FA02463B69D31A642BF0
:1030B00001D90323ECE1534B1B6803F40033002BCD
:1030C000F0D100E000BF7B681B6803F00203002B17
:1030D00063D04C4B5B6803F00C03002B0BD0494BC7
:1030E0005B6803F00C03082B1CD1464B5B6803F4B0
:1030F0008033002B16D1434B1B6803F00203002BD7
:1031000005D07B681B69012B01D00123C0E13D4B39
:103110001B6823F0F8027B685B69DB0039491343C5
:103120000B603AE07B681B69002B20D0364B0122F4
:103130001A60FEF711FA386108E0FEF70DFA024650
:103140003B69D31A022B01D90323A1E12D4B1B6844
:1031500003F00203002BF0D02A4B1B6823F0F80287
:103160007B685B69DB00274913430B6015E0264B46
:1031700000221A60FEF7F0F9386108E0FEF7ECF97A
:1031800002463B69D31A022B01D9032380E11D4B70
:103190001B6803F00203002BF0D17B681B6803F06F
:1031A0000803002B3AD07B689B69002B19D0174B82
:1031B00001221A60FEF7D0F9386108E0FEF7CCF979
:1031C00002463B69D31A022B01D9032360E10D4B60
:1031D0005B6A03F00203002BF0D0012000F0CEFA6E
:1031E0001CE00A4B00221A60FEF7B6F938610FE0C6
:1031F000FEF7B2F902463B69D31A022B08D9032322
:1032000046E100BF001002400000424280044242FA
:10321000924B5B6A03F00203002BE9D17B681B68C9
:1032200003F00403002B00F0A6800023FB758B4BFA
:10323000DB6903F08053002B0DD1884BDB69874A93
:1032400043F08053D361854BDB6903F08053BB604F
:10325000BB680123FB75824B1B6803F48073002B52
:1032600018D17F4B1B687E4A43F480731360FEF7CE
:1032700073F9386108E0FEF76FF902463B69D31A2B
:10328000642B01D9032303E1754B1B6803F480739E
:10329000002BF0D07B68DB68012B06D16F4B1B6ADB
:1032A0006E4A43F0010313622DE07B68DB68002B5C
:1032B0000CD16A4B1B6A694A23F001031362674B06
:1032C0001B6A664A23F0040313621CE07B68DB6818
:1032D000052B0CD1614B1B6A604A43F00403136257
:1032E0005E4B1B6A5D4A43F0010313620BE05B4BCC
:1032F0001B6A5A4A23F001031362584B1B6A574A50
:1033000023F0040313627B68DB68002B15D0FEF703
:1033100023F938610AE0FEF71FF902463B69D31A28
:1033200041F28832934201D90323B1E04B4B1B6A2F
:1033300003F00203002BEED014E0FEF70DF9386124
:103340000AE0FEF709F902463B69D31A41F28832D6
:10335000934201D903239BE0404B1B6A03F0020315
:10336000002BEED1FB7D012B05D13C4BDB693B4AA9
:1033700023F08053D3617B68DB69002B00F08780EA
:10338000364B5B6803F00C03082B61D07B68DB696C
:10339000022B46D1334B00221A60FEF7DDF838616C
:1033A00008E0FEF7D9F802463B69D31A022B01D98F
:1033B00003236DE0294B1B6803F00073002BF0D151
:1033C0007B681B6AB3F5803F08D1244B5B6823F40C
:1033D00000327B689B68214913434B601F4B5B683D
:1033E00023F474127B68196A7B685B6A0B431B4980
:1033F00013434B601B4B01221A60FEF7ADF8386196
:1034000008E0FEF7A9F802463B69D31A022B01D95E
:1034100003233DE0114B1B6803F00073002BF0D039
:1034200035E0104B00221A60FEF796F8386108E08C
:10343000FEF792F802463B69D31A022B01D9032307
:1034400026E0064B1B6803F00073002BF0D11EE052
:103450007B68DB69012B07D1012319E000100240D2
:1034600000700040600042420B4B5B68FB60FB68F1
:1034700003F480327B681B6A9A4206D1FB6803F42E
:1034800070127B685B6A9A4201D0012300E000233E
:1034900018461837BD4680BD0010024080B584B084
:1034A00000AF786039607B68002B01D10123D0E048
:1034B0006A4B1B6803F007033A689A4210D9674BBE
:1034C0001B6823F0070265493B6813430B60634B9D
:1034D0001B6803F007033A689A4201D00123B8E061
:1034E0007B681B6803F00203002B20D07B681B68FD
:1034F00003F00403002B05D0594B5B68584A43F492
:10350000E06353607B681B6803F00803002B05D061
:10351000534B5B68524A43F460535360504B5B68B3
:1035200023F0F0027B689B684D4913434B607B6836
:103530001B6803F00103002B40D07B685B68012B04
:1035400007D1474B1B6803F40033002B15D101232F
:103550007FE07B685B68022B07D1414B1B6803F05F
:103560000073002B09D1012373E03D4B1B6803F06E
:103570000203002B01D101236BE0394B5B6823F080
:1035800003027B685B68364913434B60FDF7E4FF39
:10359000F8600AE0FDF7E0FF0246FB68D31A41F24B
:1035A0008832934201D9032353E02D4B5B6803F02B
:1035B0000C027B685B689B009A42EBD1274B1B682F
:1035C00003F007033A689A4210D2244B1B6823F099
:1035D000070222493B6813430B60204B1B6803F032
:1035E00007033A689A4201D0012332E07B681B68E6
:1035F00003F00403002B08D0194B5B6823F4E0624E
:103600007B68DB68164913434B607B681B6803F0DB
:103610000803002B09D0124B5B6823F460527B68CF
:103620001B69DB000E4913434B6000F021F8024692
:103630000B4B5B681B0903F00F030A49CB5C22FAB2
:1036400003F3094A1360094B1B681846FDF742FF54
:10365000002318461037BD4680BD00BF0020024041
:1036600000100240746200080000002004000020E6
:1036700080B487B000AF0023FB600023BB60002351
:103680007B6100237B6000233B611E4B5B68FB601A
:10369000FB6803F00C03042B02D0082B03D027E0B7
:1036A000194B3B6127E0FB689B0C03F00F03174AA3
:1036B000D35C7B60FB6803F48033002B10D0114B8C
:1036C0005B685B0C03F00103114AD35CBB607B6851
:1036D0000D4A03FB02F2BB68B2FBF3F37B6104E02B
:1036E0007B680C4A02FB03F37B617B693B6102E070
:1036F000054B3B6100BF3B6918461C37BD4680BC8B
:10370000704700BF0010024000127A008C6200086F
:103710009C62000800093D0080B400AF024B1B68AA
:103720001846BD4680BC70470000002080B500AF41
:10373000FFF7F2FF0246054B5B681B0A03F0070325
:103740000349CB5C22FA03F3184680BD0010024007
:103750008462000880B500AFFFF7DEFF0246054B2C
:103760005B68DB0A03F007030349CB5C22FA03F32F
:10377000184680BD001002408462000880B485B005
:1037800000AF78600A4B1B680A4AA2FB03235B0A5E
:103790007A6802FB03F3FB6000BFFB685A1EFA6005
:1037A000002BF9D100BF00BF1437BD4680BC704765
:1037B00000000020D34D621080B582B000AF786069
:1037C0007B68002B01D1012342E07B6893F84130F4
:1037D000DBB2002B06D17B68002283F8402078689A
:1037E000FDF770FB7B68242283F841207B681B680F
:1037F000DA687B681B6822F40052DA60786800F0AF
:103800008FFA7B681B681A697B681B6822F49042F8
:103810001A617B681B685A697B681B6822F02A0260
:103820005A617B681B68DA687B681B6842F4005247
:10383000DA607B6800225A647B68202283F841208A
:103840007B68202283F842207B6800225A63002391
:1038500018460837BD4680BD80B584B000AFF8601B
:10386000B9601346FB80FB6893F84230DBB2202B33
:1038700012D1BB68002B02D0FB88002B01D10123A1
:103880000BE0FB6800221A63FB881A46B968F868E7
:1038900000F022F9034600E0022318461037BD4627
:1038A00080BD80B483B000AF786000BF0C37BD46E8
:1038B00080BC704780B483B000AF786000BF0C3725
:1038C000BD4680BC704780B483B000AF78600B46C3
:1038D0007B8000BF0C37BD4680BC704780B59CB074
:1038E00000AF78607B685B6AFB667B681B681B685F
:1038F00003F02003002B72D1FB6E0022DA85FB6EF1
:103900001B680C33FB64FB6C53E8003FBB64BB6C6F
:1039100023F48073BB66FB6E1B680C33BA6EBA650A
:103920007B65796DBA6D41E800233B653B6D002BEB
:10393000E5D1FB6E1B681433BB63BB6B53E8003FE0
:103940007B637B6B23F001037B66FB6E1B68143388
:103950007A6E7A643B64396C7A6C41E80023FB63CD
:10396000FB6B002BE5D1FB6E1B6814337B627B6A1B
:1039700053E8003F3B623B6A23F040033B66FB6E2B
:103980001B6814333A6E3A63FB62F96A3A6B41E89A
:103990000023BB62BB6A002BE5D1FB6E202283F8BB
:1039A0004220FB6E1B6B012B19D1FB6E1B680C3385
:1039B0003B613B6953E8003FFB60FB6823F0100369
:1039C000FB65FB6E1B680C33FA6DFA61BB61B9696C
:1039D000FA6941E800237B617B69002BE5D1FB6E2E
:1039E00000225A63FB6E1B6B012B06D1FB6E9B8D75
:1039F0001946F86EFFF767FF02E0F86EFDF734F83E
:103A000000BF7037BD4680BD80B584B000AF786020
:103A10007B685B6AFB60FB6801225A63FB681B6B77
:103A2000012B08D1FB689B8D5B089BB21946F86897
:103A3000FFF749FF02E0F868FFF733FF00BF1037D8
:103A4000BD4680BD80B584B000AF78600023FB60C8
:103A50007B685B6ABB60BB681B685B6903F08003C3
:103A6000002B14BF01230023DBB2FB60BB6893F87B
:103A70004130DBB2212B08D1FB68002B05D0BB689D
:103A80000022DA84B86800F0C1F8BB681B685B6983
:103A900003F04003002B14BF01230023DBB2FB60C3
:103AA000BB6893F84230DBB2222B08D1FB68002BB5
:103AB00005D0BB680022DA85B86800F0CEF8BB6894
:103AC0005B6C43F01002BB685A64B868FFF7F2FE03
:103AD00000BF1037BD4680BD80B598B000AFF8601C
:103AE000B9601346FB80BA68FB689A62FB68FA8883
:103AF0009A85FB6800225A64FB68222283F84220E0
:103B0000FB68DB6B3E4A9A62FB68DB6B3D4ADA621C
:103B1000FB68DB6B3C4A1A63FB68DB6B00225A6371
:103B200007F10803FB65FB68D86BFB681B6804336F
:103B30001946FB6D1A68FB88FDF7A4FE00233B6164
:103B4000FB681B681B683B61FB681B685B683B612B
:103B50003B69FB681B69002B19D0FB681B680C33A1
:103B60003B643B6C53E8003FFB63FB6B43F48073A7
:103B7000BB65FB681B680C33BA6DFA64BB64B96C37
:103B8000FA6C41E800237B647B6C002BE5D1FB6879
:103B90001B681433FB62FB6A53E8003FBB62BB6ADD
:103BA00043F001037B65FB681B6814337A6DBA63CD
:103BB0007B63796BBA6B41E800233B633B6B002B63
:103BC000E5D1FB681B681433BB61BB6953E8003F58
:103BD0007B617B6943F040033B65FB681B681433E2
:103BE0003A6D7A623B62396A7A6A41E80023FB6186
:103BF000FB69002BE5D1002318466037BD4680BD28
:103C0000DD380008093A0008453A000880B489B058
:103C100000AF78607B681B680C33FB60FB6853E87F
:103C2000003FBB60BB6823F0C003FB617B681B687F
:103C30000C33FA69BA617B617969BA6941E800239A
:103C40003B613B69002BE5D17B68202283F8412052
:103C500000BF2437BD4680BC704780B495B000AF2C
:103C600078607B681B680C337B637B6B53E8003F99
:103C70003B633B6B23F49073FB647B681B680C33E2
:103C8000FA6C3A64FB63F96B3A6C41E80023BB635E
:103C9000BB6B002BE5D17B681B6814333B623B6A2E
:103CA00053E8003FFB61FB6923F00103BB647B68C1
:103CB0001B681433BA6CFA62BB62B96AFA6A41E8EB
:103CC00000237B627B6A002BE5D17B681B6B012B99
:103CD00019D17B681B680C33FB60FB6853E8003F1D
:103CE000BB60BB6823F010037B647B681B680C33EC
:103CF0007A6CBA617B617969BA6941E800233B61FA
:103D00003B69002BE5D17B68202283F842207B6849
:103D100000221A6300BF5437BD4680BC70470000C4
:103D200080B584B000AF78607B681B681B6923F4A2
:103D300040517B68DA687B681B680A431A617B68BC
:103D40009A687B681B691A437B685B691343BB6095
:103D50007B681B68DB6823F4B05323F00C037A689C
:103D60001268B9680B43D3607B681B685B6923F4F6
:103D700040717B689A697B681B680A435A617B685B
:103D80001B682C4A934203D1FFF7E4FCF86002E081
:103D9000FFF7CCFCF860FA6813469B0013449A00C6
:103DA0001A447B685B689B00B2FBF3F3224AA2FBD8
:103DB00003235B091901FA6813469B0013449A0018
:103DC0001A447B685B689B00B2FBF3F21A4BA3FBBF
:103DD00002035B09642000FB03F3D31A1B01323397
:103DE000154AA2FB03235B0903F0F0031944FA68A8
:103DF00013469B0013449A001A447B685B689B003F
:103E0000B2FBF3F20C4BA3FB02035B09642000FB43
:103E100003F3D31A1B013233074AA2FB03235B09C6
:103E200003F00F027B681B680A449A6000BF1037DA
:103E3000BD4680BD003801401F85EB5180B586B07E
:103E400004AF03460A46FB711346BB710C4ABB79AB
:103E500013700C4B1B7899B2FB799AB264230293CE
:103E600001230193064B009301230748FEF77EF9D7
:103E700003461A46054B1A7000BF0837BD4680BD81
:103E800060040020090000200C04002064040020CD
:103E900080B586B004AF03460A46FB711346BB806B
:103EA000BA880C4B1A800C4B1B7899B2FB799AB2EA
:103EB0006423029302230193064B009301230748D6
:103EC000FEF754F903461A46054B1A7000BF08372F
:103ED000BD4680BD60040020090000200C040020C5
:103EE0006404002080B588B004AF0346FB710F4B1B
:103EF0001B7843F00103DBB299B2FB799AB26423D9
:103F00000293012301930A4B009301230948FEF712
:103F100027FA03461A46084B1A70054B1B78FB73A9
:103F2000FB7B18461037BD4680BD00BF090000204E
:103F3000600400200C0400206404002080B588B0D8
:103F400004AF0346FB710F4B1B7843F00103DBB258
:103F500099B2FB799AB264230293022301930A4B2C
:103F6000009301230948FEF7FBF903461A46084B64
:103F70001A70054B1B88FB81FB8918461037BD461C
:103F800080BD00BF09000020600400200C04002058
:103F90006404002080B586B004AF03463960FB712D
:103FA0001346BB713B681B681A460D4B1A600D4BDC
:103FB0001B7899B2FB799AB2BB799BB264200290CC
:103FC0000193074B009301230748FEF7CFF8034600
:103FD0001A46064B1A7000BF0837BD4680BD00BFA9
:103FE00060040020090000200C040020640400206C
:103FF00080B586B004AF03463960FB711346BB71D0
:104000000D4B1B7843F00103DBB299B2FB799AB2F6
:10401000BB799BB26420029001933B68009301231B
:104020000648FEF79DF903461A46054B1A7000BF75
:104030000837BD4680BD00BF090000200C040020E9
:104040006404002080B586B000AF03463960FB7180
:1040500054223968544801F0F3FB544B00221A7083
:10406000524B00225A70514B00229A704F4B002243
:10407000DA70FB79002B0AD08920FFF733FF034663
:1040800043F00103DBB219468920FFF7D7FE002178
:104090008820FFF7D3FE01218020FFF7CFFE01210A
:1040A000FF20FFF7CBFE00210020FFF7C7FE912085
:1040B000FFF718FF03461A463D4B1A7001210020F6
:1040C000FFF7BCFE0021FF20FFF7B8FE0021802093
:1040D000FFF7B4FE6020FFF705FF034643F012032D
:1040E000DBB219466020FFF7A9FE4FF07A5000F0CE
:1040F00007FAFF210120FFF7A1FE07F1130207F1E4
:1041000014031146184600F06BFD0346002B01D145
:104110000023EEE107F10C0306221946B020FFF759
:1041200067FF0121FF20FFF789FE00214F20FFF7E5
:1041300085FE2C214E20FFF781FE0021FF20FFF796
:104140007DFEB421B620FFF779FEFB7C002B01D069
:104150000C2300E000237B750023FB750023BB7557
:104160003FE0BA7D7B7D9A4203D33B7DFA7D9A4244
:1041700020D1BB7DDB08D8B2034618333B4413F88B
:104180000C3C5AB2BB7D03F00703012101FA03F393
:104190005BB2DB435BB213405AB20346D2B2183370
:1041A0003B4403F80C2C19E00C04002060040020B0
:1041B00006040020BB7DDB08DBB218333B4413F858
:1041C0000C3C1A46BB7D03F0070342FA03F303F0ED
:1041D0000103002B02D0FB7D0133FB75BB7D013356
:1041E000BB75BB7D2F2BBCD907F10C0306221946EA
:1041F000B020FFF7CFFE0121FF20FFF71FFE0021B7
:104200000020FFF71BFE0021FF20FFF717FE002113
:104210000920FFF713FE00211020FFF70FFE0021F9
:104220001120FFF70BFE01212420FFF707FEFF21DD
:104230002520FFF703FE00217520FFF7FFFD012178
:10424000FF20FFF7FBFD2C214E20FFF7F7FD00219B
:104250004820FFF7F3FD20213020FFF7EFFD00217C
:10426000FF20FFF7EBFD09213020FFF7E7FD0021DC
:104270005420FFF7E3FD04213120FFF7DFFD032188
:104280003220FFF7DBFD83214020FFF7D7FD2521FA
:104290004620FFF7D3FD00216020FFF7CFFD00216E
:1042A0002720FFF7CBFD06215020FFF7C7FD002197
:1042B0005120FFF7C3FD96215220FFF7BFFD0821D3
:1042C0005620FFF7BBFD30215720FFF7B7FD002137
:1042D0006120FFF7B3FD00216220FFF7AFFD002151
:1042E0006420FFF7ABFD00216520FFF7A7FDA021AB
:1042F0006620FFF7A3FD0121FF20FFF79FFD32217C
:104300002220FFF79BFD14214720FFF797FDFF2197
:104310004920FFF793FD00214A20FFF78FFD002180
:10432000FF20FFF78BFD0A217A20FFF787FD002190
:104330007B20FFF783FD21217820FFF77FFD0121FE
:10434000FF20FFF77BFD34212320FFF777FD0021BD
:104350004220FFF773FDFF214420FFF76FFD262168
:104360004520FFF76BFD05214620FFF767FD402143
:104370004020FFF763FD06210E20FFF75FFD1A21A5
:104380002020FFF75BFD40214320FFF757FD002170
:10439000FF20FFF753FD03213420FFF74FFD442199
:1043A0003520FFF74BFD0121FF20FFF747FD0421DA
:1043B0003120FFF743FD09214B20FFF73FFD052189
:1043C0004C20FFF73BFD04214D20FFF737FD002176
:1043D000FF20FFF733FD00214420FFF72FFD2021B0
:1043E0004520FFF72BFD08214720FFF727FD282157
:1043F0004820FFF723FD00216720FFF71FFD042160
:104400007020FFF71BFD01217120FFF717FDFE2132
:104410007220FFF713FD00217620FFF70FFD00212A
:104420007720FFF70BFD0121FF20FFF707FD01219A
:104430000D20FFF703FD0021FF20FFF7FFFC012106
:104440008020FFF7FBFCF8210120FFF7F7FC01219A
:10445000FF20FFF7F3FC01218E20FFF7EFFC012185
:104460000020FFF7EBFC0021FF20FFF7E7FC002115
:104470008020FFF7E3FC04210A20FFF7DFFC842003
:10448000FFF730FD034623F01003DBB2194684200A
:10449000FFF7D4FC01210B20FFF7D0FC00F0FCF863
:1044A0000346164A1360E8210120FFF7C7FC134BAF
:1044B0001B68184600F058F801210120FFF7BEFCE8
:1044C000402000F045FD0346002B01D1002310E001
:1044D00002210120FFF7B2FC002000F039FD034665
:1044E000002B01D1002304E0E8210120FFF7A6FC06
:1044F000012318461837BD4680BD00BF08040020C0
:1045000080B582B000AF78604FF000017868FCF7AA
:1045100021FA0346002B0AD17868FBF77DFF10A330
:10452000D3E90023FCF74EF80346002B01D000230B
:104530000FE04FF086417868FCF76EF803461846A6
:10454000FCF730FA03469BB219464420FFF7A0FC63
:10455000012318460837BD4680BD00BFAFF3008079
:10456000A4703D0AD7FF7F4080B592B000AF78605D
:104570004FF4A563A7F840304FF47073FB874FF4F6
:104580002573BB8740F24E237B8740F2B2233B87E3
:104590004FF42573FB8640F22623BB8644F6206346
:1045A0003B637A683B6B9A4201D200236EE0B7F816
:1045B0004020FB8F13447B6407F12403184600F06E
:1045C000A3FB07F10C0207F124031146184600F083
:1045D000CDFB97F82430002B05D0BA697B8F1344AC
:1045E0007A6C13447B6497F82630002B07D0BA69A5
:1045F0003B8F13445B007A6C13447B6409E097F8AB
:104600002530002B05D0BA69BB8F13447A6C134454
:104610007B6497F82730002B05D0FA69FB8E134492
:104620007A6C13447B6497F82830002B2DD0BB8E16
:104630007A6C13447B647A6C7B689A4201D90023BC
:1046400024E07A687B6CD31AFB62FB89DBB21946E3
:10465000F86A00F057FC0346A7F8423097F8273075
:10466000002B05D07A8AB7F842301344A7F84230BD
:10467000B7F84230184600F0F2FB034619467120A5
:10468000FFF706FC034A7B6813600123184648378E
:10469000BD4680BD0804002080B58CB000AF40F25C
:1046A00076737B854FF470733B854FF42573FB84E1
:1046B00040F24E23BB8440F2B2237B844FF4257337
:1046C0003B8440F22623FB837A8D3B8D1344FB62AF
:1046D00007F11803184600F017FB3A4607F11803D4
:1046E0001146184600F042FB3B7E002B05D0FA68CD
:1046F000BB8C1344FA6A1344FB62BB7E002B07D0C9
:10470000FA687B8C13445B00FA6A1344FB6208E08E
:104710007B7E002B05D0FA68FB8C1344FA6A1344A5
:10472000FB62FB7E002B05D03A693B8C1344FA6A8E
:104730001344FB623B7F002B05D07A69FB8B13444B
:10474000FA6A1344FB62044AFB6A1360FB6A184668
:104750003037BD4680BD00BF0804002080B58CB056
:1047600000AF03460A46FB711346BB71BB795B0879
:10477000DBB2013B87F82D3007F12003184600F02B
:10478000C3FA07F1080207F120031146184600F0AA
:10479000EDFAFB79002B5DD1BB790C3B062B25D8BC
:1047A00001A252F823F000BFC5470008ED470008FA
:1047B000CF470008ED470008D9470008ED4700083B
:1047C000E347000818215720FFF738FB10E030219D
:1047D0005720FFF733FB0BE040215720FFF72EFB5C
:1047E00006E050215720FFF729FB01E00023FCE001
:1047F00008215620FFF722FB97F82D30194650204C
:10480000FFF71CFBBB69BA791146184600F07AFB2A
:1048100003467B857B8D184600F021FB0346194635
:104820005120FFF735FB7B69BA791146184600F035
:1048300069FB03463B853B8DB3F5807F04D83B8DF8
:10484000DBB2013BDBB200E0FF2319464620FFF755
:10485000F5FAB1E0FB79012B40F0AC80BB79083B65
:10486000062B00F2858001A252F823F08948000847
:1048700071490008C348000871490008FD48000854
:10488000714900083749000810214820FFF7D6FA7F
:1048900008214720FFF7D2FA02213220FFF7CEFA93
:1048A0000C213020FFF7CAFA0121FF20FFF7C6FADA
:1048B00030213020FFF7C2FA0021FF20FFF7BEFAB7
:1048C00058E028214820FFF7B9FA08214720FFF7D0
:1048D000B5FA03213220FFF7B1FA09213020FFF7A2
:1048E000ADFA0121FF20FFF7A9FA20213020FFF7C0
:1048F000A5FA0021FF20FFF7A1FA3BE0382148206C
:10490000FFF79CFA08214720FFF798FA032132208D
:10491000FFF794FA08213020FFF790FA0121FF20D9
:10492000FFF78CFA20213020FFF788FA0021FF20C2
:10493000FFF784FA1EE048214820FFF77FFA08219C
:104940004720FFF77BFA03213220FFF777FA072190
:104950003020FFF773FA0121FF20FFF76FFA2021C3
:104960003020FFF76BFA0021FF20FFF767FA01E024
:1049700000233AE097F82D3019467020FFF75EFAD1
:10498000FB69BA791146184600F0BCFA0346FB856C
:1049900097F82330002B03D0FA89FB8D1344FB8555
:1049A000FB8D184600F05BFA034619467120FFF7AD
:1049B0006FFA01E0002318E00E4B1B681846FFF762
:1049C000D3FD0120FFF78EFA034687F82730022136
:1049D0000120FFF733FA002000F0BAFA97F82730E9
:1049E00019460120FFF72AFA012318463037BD4641
:1049F00080BD00BF0804002080B582B000AF034630
:104A0000FB71FB79002B08D15020FFF76BFA0346AE
:104A10000133DBB25B00DBB20CE0FB79012B08D188
:104A20007020FFF75FFA03460133DBB25B00DBB2B5
:104A300000E0FF2318460837BD4680BD80B586B02C
:104A400000AF7860FCF788FD03469AB2334B1A80BA
:104A500015E0334B1B88002B11D0FCF77DFD03467E
:104A60009BB21A462D4B1B88D31A2D4A12889342AB
:104A700005DD2C4B01221A704FF6FF734AE013201C
:104A8000FFF730FA034603F00703002BE1D07B6801
:104A9000002B05D11E20FFF751FA0346FB8234E0BC
:104AA00007F108030C2219461420FFF7A1FA3B7AFC
:104AB000DB08DAB27B681A72BB7A1B021AB2FB7A85
:104AC0001BB213431BB29AB27B68DA80BB7B1B021A
:104AD0001AB2FB7B1BB213431BB29AB27B685A809B
:104AE0003B7C1B021AB27B7C1BB213431BB29AB2F3
:104AF0007B689A80BB7C1B021AB2FB7C1BB21343FF
:104B00001BB2FB827B68FA8A1A8001210B20FFF717
:104B100095F9FB8A18461837BD4680BD040400206D
:104B2000000400200204002080B582B000AF78604D
:104B300001218020FFF782F90121FF20FFF77EF994
:104B400000210020FFF77AF9214B1B7819469120AC
:104B5000FFF774F901210020FFF770F90021FF2011
:104B6000FFF76CF900218020FFF768F90121002090
:104B7000FFF764F9FCF7F0FC03469AB2154B1A8074
:104B800015E0154B1B88002B11D0FCF7E5FC034604
:104B90009BB21A460F4B1B88D31A0F4A12889342B6
:104BA00005DD0E4B01221A704FF6FF730BE000205B
:104BB000FFF798F9034603F00103002BE1D1786871
:104BC000FFF73CFF034618460837BD4680BD00BFCF
:104BD0000604002004040020000400200204002039
:104BE00080B584B000AF7860396001218020FFF784
:104BF00025F90121FF20FFF721F900210020FFF70F
:104C00001DF90621FF20FFF719F98320FFF76AF944
:104C1000034643F00403DBB219468320FFF70EF985
:104C20000721FF20FFF70AF901218120FFF706F98C
:104C300001218020FFF702F96B219420FFF7FEF895
:104C400000218320FFF7FAF8FCF786FC03469AB2AE
:104C50002B4B1A8011E02B4B1B88002B0DD0FCF73F
:104C60007BFC03469BB21A46254B1B88D31A254A68
:104C70001288934201DD00233DE08320FFF732F9E3
:104C80000346002BE7D001218320FFF7D7F89220BD
:104C9000FFF728F90346FB73FB7B03F07F03DAB2CF
:104CA0007B681A70FB7BDB09DAB23B681A70002163
:104CB0008120FFF7C3F80621FF20FFF7BFF883200C
:104CC000FFF710F9034623F00403DBB219468320F3
:104CD000FFF7B4F80121FF20FFF7B0F80121002011
:104CE000FFF7ACF80021FF20FFF7A8F80021802093
:104CF000FFF7A4F8012318461037BD4680BD00BF5A
:104D0000040400200004002080B584B000AF786067
:104D10000120FFF7E7F80346FB73FB7B1B09DBB2BF
:104D200003F00103DAB27B681A70FB7BDB08DBB2AD
:104D300003F00103DAB27B689A70FB7B9B08DBB25D
:104D400003F00103DAB27B685A70FB7B9B09DBB28C
:104D500003F00103DAB27B68DA70FB7BDB09DAB2BD
:104D60007B681A7100BF1037BD4680BD80B582B028
:104D700000AF786039600020FFF73EFE03469AB22C
:104D80003B681A804620FFF7ADF803469BB201331B
:104D90009AB23B689A803B689A883B681B88DBB272
:104DA0001946104600F086F802463B68DA6051204A
:104DB000FFF7C4F80346184600F03EF803461A46CB
:104DC0003B68DA803B68DA883B681B88DBB21946AF
:104DD000104600F06FF802463B681A610120FFF7A9
:104DE0000BFE03469AB23B685A807120FFF7A6F883
:104DF0000346184600F020F803461A463B681A811D
:104E00007B68DB78002B07D03B681A893B68DB881E
:104E1000D31A9AB23B681A813B681A893B685B884F
:104E2000DBB21946104600F045F802463B685A616D
:104E300000BF0837BD4680BD80B483B000AF0346D5
:104E4000FB80FB88DBB2FA88120A92B293409BB2D5
:104E500001339BB218460C37BD4680BC704780B406
:104E600085B000AF0346FB800023FB6000237B81FD
:104E7000FB88002B18D0FB88013BFB6005E0FB683A
:104E80005B08FB607B8901337B81FB6823F0FF03B8
:104E9000002BF4D17B891B029AB2FB689BB2DBB278
:104EA0009BB213439BB200E0002318461437BD4663
:104EB00080BC704780B485B000AF03460A46FB80D3
:104EC00013467B717B790D4A02FB03F303F5FA73FA
:104ED0000B4AA2FB03239B09FB60FB88FA6803FBD8
:104EE00002F2FB685B081344054AA2FB03239B09FB
:104EF00018461437BD4680BC704700BF002F3A00EB
:104F0000D34D621080B485B000AF78600B46FB7063
:104F1000FB780D4A02FB03F303F5FA730B4AA2FB7D
:104F200003239B09FB607B684FF47A7203FB02F258
:104F3000FB685B081A44FB68B2FBF3F318461437AE
:104F4000BD4680BC704700BF002F3A00D34D6210B1
:104F500080B582B000AF0346FB71FB7943F00103DB
:104F6000DBB219460020FEF769FFFCF7F5FA0346AD
:104F70009AB2154B1A8011E0144B1B88002B0DD0F0
:104F8000FCF7EAFA03469BB21A460F4B1B88D31A6A
:104F90000E4A1288934201DD002310E01320FEF731
:104FA000A1FF034603F00703002BE5D001210B20EE
:104FB000FEF744FF00210020FEF740FF01231846C2
:104FC0000837BD4680BD00BF040400200004002057
:104FD0000A22002100F032B9024B0146186800F0A5
:104FE00023B800BF6400002070B50E4E0C46316837
:104FF000054611B900F0CEFB30602146284600F08E
:10500000C9FB431C0AD0C41C24F00304A04207D0EF
:10501000211A284600F0BEFB013001D14FF0FF34C9
:10502000204670BD6C0400202DE9F843CD1C25F00E
:10503000030508350C2D38BF0C25002D074601DB74
:10504000A94205D90C2300263B603046BDE8F88311
:10505000DFF8D08000F068F8D8F800301C465CBB60
:1050600029463846FFF7C0FF431C044655D1D8F8FF
:1050700000402646002E45D1002C48D023683146FA
:10508000384604EB030900F085FB81453FD12168D8
:1050900038466D1A2946FFF7A7FF013037D023683D
:1050A0002B442360D8F80030002B38D05A68A24235
:1050B0002BD100225A600FE02268521B1FD40B2A0A
:1050C00017D96119A342256018BF5960636808BFEA
:1050D000C8F8001062514B60384604F10B0600F02E
:1050E00029F826F00706231DF21AAED09B1BA35009
:1050F000ABE7A3426268DDD1C8F80020ECE72346A5
:105100006468ACE734467668B4E71346CCE70C2312
:1051100038463B6000F00EF897E72560DCE75B60FF
:10512000FFDE00BF68040020014800F07FBB00BF25
:10513000B0050020014800F07ABB00BFB005002098
:10514000012B2DE9F0478646904601D0242B06D945
:1051500000F042FB162303600020BDE8F0870D46F7
:1051600035482A4615F8014B065D16F00806F8D1B9
:105170002D2C2ED101262C78951C002B57D0102BCE
:1051800009D1302C07D12A7802F0DF02582A49D100
:1051900010236C780235002206F1004C0CF1FF3C24
:1051A000BCFBF3F9104603FB19CAA4F13007092F21
:1051B00014D83C46A34220DD571C07D0814519D3A3
:1051C00001D1A24516DB012200FB034015F8014B7B
:1051D000EBE72B2C04BF2C78951CCEE7A4F14107FC
:1051E000192F01D8373CE5E7A4F16107192F04D83E
:1051F000573CDFE74FF0FF32E8E7531C08D122238A
:105200006046CEF80030B8F1000FA6D0691E06E067
:1052100006B14042B8F1000F9FD0002AF6D1C8F87D
:1052200000109AE73024002BB5D10823B3E7302CC7
:10523000A9D00A23AFE700BF9F62000813460A46C1
:10524000014602480068FFF77BBF00BF64000020F2
:10525000002310B50446C0E90033C0E9043383607D
:1052600081814366C2818361194608225C3000F067
:10527000E5F9054B24626362044BA362044BE362CD
:10528000044B236310BD00BF8D540008AF540008C9
:10529000E75400080B550008024A0349034800F090
:1052A00069B800BF0C000020D95F0008180000207A
:1052B00041680C4B10B59942044601D000F08CFEB9
:1052C000A168094B994202D0204600F085FEE168B2
:1052D000064B994204D02046BDE8104000F07CBE49
:1052E00010BD00BF70040020D8040020400500203D
:1052F00010B50B4B0B4C0C4A20461A6004210022BF
:10530000FFF7A6FF04F1680001220921FFF7A0FFC3
:1053100004F1D0000222BDE810401221FFF798BF2F
:10532000A80500207004002099520008014800F0F0
:105330007DBA00BFB1050020014800F078BA00BF77
:10534000B105002010B50446FFF7F0FF236A1BB13A
:10535000BDE81040FFF7F0BF044B2362044B1B680D
:10536000002BF5D1FFF7C4FFF2E700BFB1520008F0
:10537000A80500202DE9F843074688461446002674
:10538000D4E90195B9F1010905D52468002CF7D1BC
:105390003046BDE8F883AB89012B07D9B5F90E304B
:1053A000013303D029463846C04706436835E9E74C
:1053B0000FB407B5064904AB086853F8042B81689D
:1053C000019300F0D9FA03B05DF804EB04B0704724
:1053D00064000020036A70B505460E4684680BB968
:1053E000FFF7B0FF636EDB0705D4A389980502D4ED
:1053F000A06D00F01BFAA389190713D523698BB19F
:10540000013EA36816F8011F013BA360E9B9002B18
:105410002EDA22460A21284600F07BF8013007D018
:105420000A2507E02146284600F0B0F80028E7D01A
:105430004FF0FF35636EDA0705D4A3899B0502D4CC
:10544000A06D00F0F4F9284670BD002B04DAA269C3
:105450009A4206DC0A2904D023685A1C226019707B
:10546000CFE72246284600F054F80130C9D1DFE7E3
:105470000A2523685A1C22601D70DBE7024B014697
:105480001868FFF7A7BF00BF6400002010B50C46E6
:10549000B1F90E1000F06CF90028ABBF636DA38961
:1054A0001B1823F48053ACBF6365A38110BD2DE9A5
:1054B000F0411F468B890546DB050C46164605D58F
:1054C00002230022B1F90E1000F040F9A389324600
:1054D00023F48053A38128463B46B4F90E10BDE85F
:1054E000F04100F067B910B50C46B1F90E1000F0AC
:1054F0002DF9431CA38915BF606523F4805343F441
:105500008053A38118BFA38110BDB1F90E1000F024
:105510000DB9F8B50E461446054618B1036A0BB925
:10552000FFF710FFA369A360A3891A0725D5236994
:105530001BB323682269F6B2981A6369374683421F
:1055400004DC2146284600F047FDE0B9A368013B92
:10555000A36023685A1C22601E706269431C9A4231
:1055600004D0A389DB0706D50A2E04D1214628469C
:1055700000F032FD38B93846F8BD2146284600F023
:1055800005F80028D5D04FF0FF37F4E738B52A4B9F
:10559000054618680C4618B1036A0BB9FFF7D2FE2E
:1055A000A389B4F90C20180722D4D90607D40923FB
:1055B0002B6042F040034FF0FF30A38134E05807E6
:1055C00012D5616B41B104F14403994202D02846DF
:1055D00000F062F900236363A38923F02403A3810D
:1055E0000023636023692360A38943F00803A38138
:1055F00023694BB9A38903F42073B3F5007F03D06B
:105600002146284600F047FDA089B4F90C2010F08F
:1056100001030AD00023A36063695B42A36123698D
:1056200043B910F08000C4D138BD810758BF636909
:10563000A360F4E70020F7E764000020034602447B
:10564000934200D1704703F8011BF9E7034610B5F8
:10565000013932B111F8014F013A03F8014B002C26
:10566000F7D100211A44934200D110BD03F8011B69
:10567000F9E70000164B2DE9F0411F6805467C6CE8
:105680000E46ECB95020FFF7A7FC0246786420B91B
:105690005B21104B104800F0E1F8C0E90044C0E97C
:1056A0000244C0E90444C0E90A44C0E90C44C0E92A
:1056B0000E44C0E91044C0E9124484610477446296
:1056C000314628467A6C0123BDE8F04100F006B867
:1056D000640000209F630008B6630008F0B508B9B5
:1056E000106888B104460F46204614F8015B17F88D
:1056F000016B1EB965B92846156005E0B542F6D1C3
:10570000002BF0D114600370F0BD1C460CE015B9FD
:105710000E4614F8013B16F8015BAB42F7D1002BA3
:10572000F3D0002304F8013C1460EDE738B5002302
:10573000054D044608462B60FBF7AAFC431C02D12A
:105740002B6803B1236038BDAC05002038B5044692
:10575000084611460022054D2A601A46FBF7BCFC9C
:10576000431C02D12B6803B1236038BDAC05002077
:1057700038B50446084611460022054D2A601A46EF
:10578000FBF769FC431C02D12B6803B1236038BDD1
:10579000AC05002038B50023054D044608462B60B3
:1057A000FBF7A6FC431C02D12B6803B1236038BD74
:1057B000AC05002038B50446084611460022054DC8
:1057C0002A601A46FBF734F9431C02D12B6803B157
:1057D000236038BDAC050020014B1868704700BF3E
:1057E0006400002070B500260C4D0D4C641BA41005
:1057F000A64209D100F008FD00260A4D0A4C641BA0
:10580000A410A64205D170BD55F8043B9847013657
:10581000EEE755F8043B98470136F2E7806400084C
:105820008064000880640008846400087047704742
:10583000034611F8012B03F8012B002AF9D1704718
:105840000A44914200F1FF3300D1704710B511F8BE
:10585000014B914203F8014FF9D110BD1FB5144619
:105860001A46094B05461B68D8684CB1074BCDE971
:10587000013400912B46064900F0D6FB00F078FC7D
:10588000044B1C46F3E700BF6400002010640008CE
:105890001D6400084B64000838B50546002940D057
:1058A00051F8043C0C1F002BB8BFE418FFF73CFC78
:1058B0001C4A136833B9636014602846BDE8384059
:1058C000FFF738BCA34208D9206821188B4201BFDA
:1058D00019685B6809182160EDE71A465B680BB12F
:1058E000A342FAD911685018A0420BD12068014494
:1058F000501883421160E0D118685B68084410605A
:105900005360DAE702D90C232B60D6E72068211810
:105910008B4201BF19685B6809182160636054609D
:10592000CBE738BD68040020936810B4013B002B1E
:10593000936007DA9469A34201DB0A2902D110BC03
:10594000FFF7E7BD1368581C10601970084610BCBB
:105950007047F8B506460F461446D518AC4201D13B
:10596000002007E03A46304614F8011BFFF7DCFF41
:10597000431CF3D1F8BD00002DE9F04F0D4614464D
:10598000984606469DB018B1036A0BB9FFF7DAFCDA
:105990006B6ED90705D4AB899A0502D4A86DFFF7C1
:1059A00045FFAB891B0701D52B699BB929463046BA
:1059B000FFF7ECFD70B16B6EDC0704D54FF0FF30E4
:1059C0001DB0BDE8F08FAB899805F7D4A86DFFF73F
:1059D0002EFFF3E70023099320238DF8293030238D
:1059E0004FF00109CDF80C80DFF8AC818DF82A303A
:1059F00023469A4613F8012B0AB1252AF9D1BAEBAE
:105A0000040B0BD05B46224629463046FFF7A1FF28
:105A1000013000F0A980099A5A4409929AF800309E
:105A2000002B00F0A18000234FF0FF32CDE90523C9
:105A30000AF1010A049307938DF853301A935446E0
:105A4000052214F8011B544800F084FB049AD8B9CD
:105A5000D10644BF20238DF85330130744BF2B23B6
:105A60008DF853309AF800302A2B15D05446002078
:105A70004FF00A0C079A214611F8013B303B092BE5
:105A80004DD9B0B1079214E0A0EB080309FA03F373
:105A90001343A2460493D2E7039B191D1B6803918D
:105AA000002BBBBF5B4242F0020207930793B8BFD3
:105AB000049223782E2B0CD163782A2B34D1039BAC
:105AC00002341A1D1B680392002BB8BF4FF0FF333E
:105AD0000593DFF8C8A003225046217800F03AFB76
